8=FIX.4.4|9=117|35=AD|34=2|49=A|50=1|52=20100219-14:33:32.258|56=B|57=M|263=1|568=1|569=0|580=1|75=20100218|60=20100218-00:00:00.000|10=202|