8=FIX.4.4|9=70|35=4|49=A|56=XYZ|34=129|52=20100302-19:38:21|43=Y|57=LOL|123=Y|36=175|10=192|
