8=FIX.4.4|9=94|35=3|34=214|49=A|50=U1|52=20100304-09:42:23.130|56=AB|128=B1|45=176|58=txt|371=15|372=X|373=1|10=058|