8=FIX.4.2|9=97|35=6|49=BKR|56=IM|34=14|52=20100204-09:18:42|23=115685|28=N|55=SPMI.MI|54=2|44=2200.75|27=S|25=H|10=248|